{
  "contractName": "AppStein",
  "abi": [
    {
      "constant": true,
      "inputs": [
        {
          "name": "",
          "type": "address"
        }
      ],
      "name": "shares",
      "outputs": [
        {
          "name": "",
          "type": "uint256"
        }
      ],
      "payable": false,
      "stateMutability": "view",
      "type": "function"
    },
    {
      "constant": true,
      "inputs": [
        {
          "name": "",
          "type": "uint256"
        }
      ],
      "name": "recipients",
      "outputs": [
        {
          "name": "",
          "type": "address"
        }
      ],
      "payable": false,
      "stateMutability": "view",
      "type": "function"
    },
    {
      "constant": false,
      "inputs": [],
      "name": "fundContract",
      "outputs": [],
      "payable": true,
      "stateMutability": "payable",
      "type": "function"
    },
    {
      "constant": false,
      "inputs": [
        {
          "name": "_percentage",
          "type": "uint256"
        },
        {
          "name": "_address",
          "type": "address"
        }
      ],
      "name": "addRecipient",
      "outputs": [
        {
          "name": "success",
          "type": "bool"
        }
      ],
      "payable": false,
      "stateMutability": "nonpayable",
      "type": "function"
    },
    {
      "constant": false,
      "inputs": [],
      "name": "payRecipients",
      "outputs": [
        {
          "name": "success",
          "type": "bool"
        }
      ],
      "payable": true,
      "stateMutability": "payable",
      "type": "function"
    }
  ],
  "bytecode": "0x6080604052600080556000600255600060035534801561001e57600080fd5b506107868061002e6000396000f30060806040526004361061006d576000357c0100000000000000000000000000000000000000000000000000000000900463ffffffff1680638ab0392914610072578063bd097e21146100d7578063c633791f146100e1578063ce7c2ac214610103578063d1bc76a11461015a575b600080fd5b34801561007e57600080fd5b506100bd60048036038101908080359060200190929190803573ffffffffffffffffffffffffffffffffffffffff1690602001909291905050506101c7565b604051808215151515815260200191505060405180910390f35b6100df61032d565b005b6100e96103e8565b604051808215151515815260200191505060405180910390f35b34801561010f57600080fd5b50610144600480360381019080803573ffffffffffffffffffffffffffffffffffffffff16906020019092919050505061069b565b6040518082815260200191505060405180910390f35b34801561016657600080fd5b50610185600480360381019080803590602001909291905050506106b3565b604051808273ffffffffffffffffffffffffffffffffffffffff1673ffffffffffffffffffffffffffffffffffffffff16815260200191505060405180910390f35b600080831180156101d9575060648311155b80156101ea57506064836002540111155b151561025e576040517f08c379a00000000000000000000000000000000000000000000000000000000081526004018080602001828103825260198152602001807f50657263656e746167657320617265206e6f742076616c69640000000000000081525060200191505060405180910390fd5b8160046000600354815260200190815260200160002060006101000a81548173ffffffffffffffffffffffffffffffffffffffff021916908373ffffffffffffffffffffffffffffffffffffffff16021790555082600560008473ffffffffffffffffffffffffffffffffffffffff1673ffffffffffffffffffffffffffffffffffffffff1681526020019081526020016000208190555060036000815480929190600101919050555061031d836002546106e690919063ffffffff16565b6002819055506001905092915050565b6000341115156103cb576040517f08c379a00000000000000000000000000000000000000000000000000000000081526004018080602001828103825260248152602001807f526f79616c747920616d6f756e74206d7573742062652068696768657220746881526020017f616e20300000000000000000000000000000000000000000000000000000000081525060400191505060405180910390fd5b6103e0346000546106e690919063ffffffff16565b600081905550565b6000806000805411151561048a576040517f08c379a00000000000000000000000000000000000000000000000000000000081526004018080602001828103825260278152602001807f4e6f2066756e64732068617665206265656e2073656e7420746f20746865206381526020017f6f6e74726163740000000000000000000000000000000000000000000000000081525060400191505060405180910390fd5b606460025414151561049f5760009150610697565b60006002819055506104bd606460005461070490919063ffffffff16565b60018190555060008081905550600090505b600354811015610692576004600082815260200190815260200160002060009054906101000a900473ffffffffffffffffffffffffffffffffffffffff1673ffffffffffffffffffffffffffffffffffffffff166108fc6105ad600560006004600087815260200190815260200160002060009054906101000a900473ffffffffffffffffffffffffffffffffffffffff1673ffffffffffffffffffffffffffffffffffffffff1673ffffffffffffffffffffffffffffffffffffffff1681526020019081526020016000205460015461071f90919063ffffffff16565b9081150290604051600060405180830381858888f193505050501580156105d8573d6000803e3d6000fd5b506004600082815260200190815260200160002060006101000a81549073ffffffffffffffffffffffffffffffffffffffff0219169055600560006004600084815260200190815260200160002060009054906101000a900473ffffffffffffffffffffffffffffffffffffffff1673ffffffffffffffffffffffffffffffffffffffff1673ffffffffffffffffffffffffffffffffffffffff1681526020019081526020016000206000905580806001019150506104cf565b600191505b5090565b60056020528060005260406000206000915090505481565b60046020528060005260406000206000915054906101000a900473ffffffffffffffffffffffffffffffffffffffff1681565b60008082840190508381101515156106fa57fe5b8091505092915050565b600080828481151561071257fe5b0490508091505092915050565b60008060008414156107345760009150610753565b828402905082848281151561074557fe5b0414151561074f57fe5b8091505b50929150505600a165627a7a723058209d02dd6aeead01e91e093c28201172d26db31264675ec53be344c64c71fd3e150029",
  "source": "pragma solidity ^0.4.0;\n\n//SYNOPSIS: This is basically a payment splitter. It receives a 100% worth of recipient and sends them the funds which have been funded in the contract.\n//I've done my best to circumvent any pottential security flaws (especially since the GUI isn't really needed to interact with the contracts) but this might still need to be tested. \n//Need to check out this OpenZeppelin audited branch which holds similar logic (payments splitter): https://github.com/OpenZeppelin/openzeppelin-solidity/blob/master/contracts/payment/PaymentSplitter.sol\nimport \"./Ownable.sol\"; //Added for extended management of the contract\n\n//Define the safe math library (taken from Open Zeppelin)\nlibrary SafeMath {\n\n    function mul(uint256 a, uint256 b) internal pure returns (uint256) {\n        if (a == 0) {\n            return 0;\n    }\n        uint256 c = a * b;\n        assert(c / a == b);\n        return c;\n    }\n\n    function div(uint256 a, uint256 b) internal pure returns (uint256) {\n        // assert(b > 0); // Solidity automatically throws when dividing by 0\n        uint256 c = a / b;\n        // assert(a == b * c + a % b); // There is no case in which this doesn't hold\n        return c;\n    }\n\n    function sub(uint256 a, uint256 b) internal pure returns (uint256) {\n        assert(b <= a);\n        return a - b;\n    }\n\n    function add(uint256 a, uint256 b) internal pure returns (uint256) {\n        uint256 c = a + b;\n        assert(c >= a);\n        return c;\n    }\n}\n\ncontract AppStein {\n    using SafeMath for uint;\n\n    //VARIABLES\n    uint256 internal amountForCalc1 = 0;\n    uint256 internal amountForCalc2;\n    uint256 internal _percentageSum = 0;\n    uint256 _totalRecipients = 0;\n\n    //MAPPING (manages the users and their shares)\n    mapping (uint256 => address) public recipients;\n    mapping (address => uint256) public shares;\n\n    //It was decided to currently not use a fallback payment function\n\n    //FUNCTIONS\n    function fundContract() public payable{\n        require(msg.value > 0, \"Royalty amount must be higher than 0\");\n        amountForCalc1 = amountForCalc1.add(msg.value);\n    }\n\n    function addRecipient(uint256 _percentage, address _address) public returns (bool success){\n        //Make sure that the added recipient doesn't hurt the integrity of the data constraint\n        require(_percentage > 0 && _percentage <= 100 && (_percentageSum + _percentage) <= 100, \"Percentages are not valid\"); \n        \n        //Update the data in the mappings and update the index\n        recipients[_totalRecipients] = _address;\n        shares[_address] = _percentage;\n        _totalRecipients++;\n\n        //Update the total percentage monitoring    \n        _percentageSum = _percentageSum.add(_percentage);\n                \n        return true;\n    }\n\n    function payRecipients() public payable returns (bool success){\n        //Validate that funds have been deposited in the contract\n        require (amountForCalc1 > 0, \"No funds have been sent to the contract\");\n        //Validate that the trasnfer of funds will only be done after 100% of recipients have been updated in the mappings\n        if (_percentageSum != 100) {\n            return false;\n        } else {\n            //Clean up variable\n            _percentageSum = 0;\n            //Perform step 1 of percentage caluclation\n            amountForCalc2 = amountForCalc1.div(100);\n            //Clean up variable\n            amountForCalc1 = 0;\n            //Go over each mapping item and trasfer the relative percentage of funds to its supplied address\n            for (uint256 i = 0; i < _totalRecipients; i++) {\n                address(recipients[i]).transfer(amountForCalc2.mul(shares[recipients[i]]));\n                //Clean up mappings\n                delete recipients[i];\n                delete shares[recipients[i]];\n            }\n            return true;\n        }\n    }\n    \n}",
  "sourcePath": "/Users/muzzleme/Desktop/BlockChain/AppStein_New/contracts/AppStein.sol",
  "compiler": {
    "name": "solc",
    "version": "0.4.24+commit.e67f0147.Emscripten.clang"
  },
  "schemaVersion": "2.0.1",
  "updatedAt": "2018-11-21T11:27:46.659Z"
}